:020000040000fa
:080000000001040000000000f3
:020000040000fa
:040008000c030000e5
:020000040000fa
:04000c004e0300009f
:020000040000fa
:040010008e0300005b
:020000040000fa
:040014002c030000b9
:020000040000fa
:040018006e03000073
:020000040000fa
:04001c00ae0300002f
:020000040000fa
:04002000ae0300002b
:020000040000fa
:04002400ae03000027
:020000040000fa
:04002800ae03000023
:020000040000fa
:04002c00ae0300001f
:020000040000fa
:04003000ae0300001b
:020000040000fa
:04003400280200009e
:020000040000fa
:04003800ae03000013
:020000040000fa
:04003c00ae0300000f
:020000040000fa
:04004000ae0300000b
:020000040000fa
:04004400ae03000007
:020000040000fa
:04004800ae03000003
:020000040000fa
:04004c00ae030000ff
:020000040000fa
:04005000ae030000fb
:020000040000fa
:04005400ae030000f7
:020000040000fa
:04005800ae030000f3
:020000040000fa
:04005c00ae030000ef
:020000040000fa
:04006000ae030000eb
:020000040000fa
:04006400ae030000e7
:020000040000fa
:04006800ae030000e3
:020000040000fa
:04006c00ae030000df
:020000040000fa
:04007000ae030000db
:020000040000fa
:04007400ae030000d7
:020000040000fa
:04007800ae030000d3
:020000040000fa
:04007c00ae030000cf
:020000040000fa
:04008000ae030000cb
:020000040000fa
:04008400ae030000c7
:020000040000fa
:04008800ae030000c3
:020000040000fa
:04008c00ae030000bf
:020000040000fa
:04009000ae030000bb
:020000040000fa
:04009400ae030000b7
:020000040000fa
:04009800ae030000b3
:020000040000fa
:04009c00ae030000af
:020000040000fa
:0400a000ae030000ab
:020000040000fa
:0400a400ae030000a7
:020000040000fa
:0400a800ae030000a3
:020000040000fa
:0400ac00ae0300009f
:020000040000fa
:0400b000ae0300009b
:020000040000fa
:0400b400ae03000097
:020000040000fa
:0400b800ae03000093
:020000040000fa
:0400bc00ae0300008f
:020000040000fa
:0400c000ae0300008b
:020000040000fa
:0400c400ae03000087
:020000040000fa
:0400c800ae03000083
:020000040000fa
:0400cc00ae0300007f
:020000040000fa
:0400d000ae0300007b
:020000040000fa
:0400d400ae03000077
:020000040000fa
:0400d800ae03000073
:020000040000fa
:0400dc00ae0300006f
:020000040000fa
:0400e000ae0300006b
:020000040000fa
:0400e400ae03000067
:020000040000fa
:0400e800ae03000063
:020000040000fa
:0400ec00ae0300005f
:020000040000fa
:0400f000ae0300005b
:020000040000fa
:0400f400ae03000057
:020000040000fa
:0400f800ae03000053
:020000040000fa
:0400fc00ae0300004f
:020000040000fa
:04010000ae0300004a
:020000040000fa
:04010400ae03000046
:020000040000fa
:04010800ae03000042
:020000040000fa
:04010c00ae0300003e
:020000040000fa
:04011000ae0300003a
:020000040000fa
:04011400ae03000036
:020000040000fa
:04011800ae03000032
:020000040000fa
:04011c00ae0300002e
:020000040000fa
:04012000ae0300002a
:020000040000fa
:04012400ae03000026
:020000040000fa
:04012800ae03000022
:020000040000fa
:04012c00ae0300001e
:020000040000fa
:04013000ae0300001a
:020000040000fa
:04013400ae03000016
:020000040000fa
:04013800ae03000012
:020000040000fa
:04013c00ae0300000e
:020000040000fa
:04014000ae0300000a
:020000040000fa
:04014400ae03000006
:020000040000fa
:04014800ae03000002
:020000040000fa
:04014c00ae030000fe
:020000040000fa
:04015000ae030000fa
:020000040000fa
:04015400ae030000f6
:020000040000fa
:04015800ae030000f2
:020000040000fa
:04015c00ae030000ee
:020000040000fa
:04016000ae030000ea
:020000040000fa
:04016400ae030000e6
:020000040000fa
:04016800ae030000e2
:020000040000fa
:04016c00ae030000de
:020000040000fa
:04017000ae030000da
:020000040000fa
:04017400ae030000d6
:020000040000fa
:04017800ae030000d2
:020000040000fa
:04017c00ae030000ce
:020000040000fa
:04018000ae030000ca
:020000040000fa
:04018400ae030000c6
:020000040000fa
:04018800ae030000c2
:020000040000fa
:04018c00ae030000be
:020000040000fa
:04019000ae030000ba
:020000040000fa
:04019400ae030000b6
:020000040000fa
:04019800ae030000b2
:020000040000fa
:04019c00ae030000ae
:020000040000fa
:0401a000ae030000aa
:020000040000fa
:0401a400ae030000a6
:020000040000fa
:0401a800ae030000a2
:020000040000fa
:0401ac00ae0300009e
:020000040000fa
:0401b000ae0300009a
:020000040000fa
:0401b400ae03000096
:020000040000fa
:0401b800ae03000092
:020000040000fa
:0401bc00ae0300008e
:020000040000fa
:0401c000ae0300008a
:020000040000fa
:0401c400ae03000086
:020000040000fa
:0401c800ae03000082
:020000040000fa
:0401cc00ae0300007e
:020000040000fa
:0401d000ae0300007a
:020000040000fa
:0401d400ae03000076
:020000040000fa
:0401d800ae03000072
:020000040000fa
:0401dc00ae0300006e
:020000040000fa
:0401e000ae0300006a
:020000040000fa
:0401e400ae03000066
:020000040000fa
:0401e800ae03000062
:020000040000fa
:0401ec00ae0300005e
:020000040000fa
:0401f000ae0300005a
:020000040000fa
:0401f400ae03000056
:020000040000fa
:0401f800ae03000052
:020000040000fa
:0401fc00ae0300004e
:020000040000fa
:100200008fbf20000e7f24000e0188000000000038
:10021000000020000000e000020032000001200089
:1002200020028800140007004e0107000000e000d3
:1002300003003a00609c2400010020000200370007
:100240000000200001002000810f7000010032003a
:1002500014000700000020000000e000020032004f
:100260000000020000000000e84c02000000000056
:100270000040da000000fe004440a900a02f20004a
:100280000000e00003003200002020009001880000
:100290004440a800000006008a1f78008b1f7800e9
:1002a00000000600a1028800800478000000eb0036
:1002b0001f003700e284440054a0b4009905ba003e
:1002c000e284440054a0b4009906ba00e2844400d9
:1002d00054a0b4000006eb00476fde00fd07b2003b
:1002e000ae018800636ce10003003a00eaff0700fa
:1002f0000000eb000e003700606ce10008003a00df
:10030000004deb000a05e800020039003420ec0043
:100310000af0a0008b05e900f9ff3e000400370059
:100320006168e100010032000086eb000b0007006d
:1003300019c7ba001905ba000e04e00003003a001c
:100340000a00e000dbff3a0000000600fe07b200f2
:10035000ae0288008a047800f5ff37000cd0a300b5
:10036000e20f4d001c00390089027800354dba00bb
:100370000a05e800020039003420ec000af0a00071
:100380008b05e9000f003200254dba000a05e80090
:10039000020039003420ec000af0a0008b05e900cf
:1003a000080032000c00e0000600320015cdba0053
:1003b0000a05e800020039003420ec000af0a00031
:1003c0008b05e9008984e80054a0b4000b00e0002c
:1003d000e2ff3a00000006009902ba00055d7800cd
:1003e0008b05e900f7ff3200c82ade00055d7800c2
:1003f0008b05e900f3ff32000c00e000f1ff320052
:1004000019ddba00eeff37001846040000000000b6
:10041000502e0400000000006a2e040000000000be
:10042000882e040000000000a62e0400000000003a
:10043000c82e040000000000ea2e040000000000a6
:100440000c2f0400000000003a2e04000000000001
:100450003600f800809fbe00829fbe00849fbe00d1
:10046000869fbe003200f8003400f8001000200023
:10047000a001880000202000900188000c00fa00f4
:100480008860a900e0be2000104078008040e800ad
:10049000e0be200001487800e0be200090407800d7
:1004a000b0c3b30080cf50003d003600e0be200056
:1004b0008040eb0001487800d0be2000104078005a
:1004c0008040e800d0be200001487800d0be200067
:1004d00090407800b0c3b30080cf500030003600a9
:1004e000d0be20008040eb0001487800c0be200054
:1004f000104078008040e800c0be2000014878002d
:10050000c0be200010407800f74f50002400360095
:10051000c0be20008040eb0001487800b0be200043
:10052000104078008040e800b0be2000014878000c
:10053000a16a2a000b000900315f7800ce00b100eb
:10054000b0be200090407800a0be2000104078008f
:100550000080fb000000e9006e40780080cf500072
:100560000f003600b0be200011c0b3000148780073
:10057000a0be2000104078008040e800a0be20000f
:1005800001487800a0be200010407800ec4f5000d9
:1005900003003600a0be200011c0b300014878005f
:1005a00010418000e30f50000d0032001041800028
:1005b000e40f50000c00320010418000e50f5000a5
:1005c0000b00320010418000e10f500002003a00a1
:1005d0006d1b070007003700cf1a07000500370022
:1005e0000000000003003700000000000100370099
:1005f000000000000080fa003400f9003200f90029
:100600004f03be004f02be004f01be004f00be00b0
:100610003600f900004006003600f800809fbe005a
:10062000829fbe00849fbe00869fbe000000fa002d
:100630008020a9000000eb00d92407000080fa0008
:100640004f03be004f02be004f01be004f00be0070
:100650003600f900004006003600f800809fbe001a
:10066000829fbe00849fbe00869fbe000000fa00ed
:10067000d02407008040a90010002000c8240700f3
:100680000080fa004f03be004f02be004f01be00c3
:100690004f00be003600f900004006003600f800aa
:1006a000809fbe00829fbe00849fbe00869fbe00ca
:1006b0000000fa008060a90020002000b824070094
:1006c0000080fa004f03be004f02be004f01be0083
:1006d0004f00be003600f900004006003600f8006a
:1006e000809fbe00829fbe00849fbe00869fbe008a
:1006f0000000fa008080a90030002000a824070034
:100700000080fa004f03be004f02be004f01be0042
:100710004f00be003600f900004006003600f80029
:10072000809fbe00829fbe00849fbe00869fbe0049
:100730000000fa008600a90070002000982407003d
:100740000080fa004f03be004f02be004f01be0002
:100750004f00be003600f900004006000040da00fd
:100760000000fe00000005006022b8000602200024
:100770000000d0008180d2000482d2008582d200a5
:100780000000a0000202520083825a0003003100e0
:100790000202420083824a000000a1000603e90031
:1007a000f3ff3a00000006000000fa00e88157005d
:1007b0004fb99700290207000080fa0000000600e8
:1007c0004d000700a5000700560107007e01070045
:1007d000d70007009a020700450237008001780021
:1007e00002003700b15978000201e9000200e00080
:1007f000fcff3a00000006000000fa00e881570004
:100800004fb99700140007000080fa0000000600ae
:10081000810178000002780030417800b14f51002a
:1008200002003a000204e000f9ff3a009480fb0065
:100830001380fb000080500000000600881f780035
:1008400000047800080078003b05070008007800e5
:100850004f047800000006000f04b0008e1f7800df
:1008600002027800030178000000e000020032007c
:1008700000077800020037000efc2f000f0747002a
:100880008002eb000100e000010032008102e9007b
:100890000f007800e003b1001d0009000018eb0014
:1008a0000080eb0090a79f0023102000a3a79f00cb
:1008b000bea79f00c1a79f00d5a79f000100e00031
:1008c00003003d00b1042000b15f8800070037003d
:1008d000004feb00fea79f00eea79f00840078006a
:1008e00020fc2f000f004000590507004f0778003b
:1008f0000f04b10000000600ec874700889fbe008f
:100900008a9fbe008c9fbe008e1f78000006780074
:1009100001047800180790002805900098067800d8
:10092000cdb79f00b80590003202be002203be0082
:100930000400be000601be004f18de006011b800c2
:100940008000eb00d0b79f00e1b79f00f2b79f0097
:1009500083bf9f00800478000900e0000600320099
:100960006000b8006011b800040250008582580091
:1009700006035900878359000e00e000020035008d
:100980000d10a100cdb79f000900e00005003a005e
:100990004fb097000028a30002003a000038a300df
:1009a000020032008a00e900010037008a00780066
:1009b000f8815700a2002000080078008600070098
:1009c0000900e00003003a00cfb097000128a3001f
:1009d000080032000000e90000814500b1c2b30008
:1009e0000900e00001003200d1c2b30001497800e3
:1009f000050037000138a300030032000000e900c1
:100a000001c2b30081757800480190000201e9003d
:100a100000015100808045004fb297008a017800a4
:100a20000c007800510207009c0090000188a30090
:100a30000400320098009000810f500001003d003a
:100a4000010078004f0778004f06be004f05be003a
:100a50004f04be00cf00b100000006000200fa0003
:100a6000889fbe008a9fbe00800578000104780040
:100a70000200780018019000280590009800780086
:100a8000b1bf9f00b80490000200e00002003500f2
:100a90000110a100b1bf9f00ea8157008200200031
:100aa0008a0078003002be002003be0008007800f3
:100ab000490007003fb99700f000610003003200d1
:100ac0000000e90001c3b300817478003fb99700ca
:100ad000e8006100030032000000e90001c2b30039
:100ae00081747800480190000201e9000001510082
:100af000808044003fba97008a0178000b0078009c
:100b00001a0207009b0090000188a3000400320035
:100b100098009000810f500001003d000100780016
:100b20004f05be004f04be000080fa000000060022
:100b3000ea874700889fbe008a9fbe008e1f78000c
:100b400000047800030078007287570084e22600d2
:100b500055c72600049fbe00c3962200030f7800ed
:100b60006c875700004feb0011059000a104900026
:100b7000910578000200e0000200320002077800d0
:100b800001003700728757000000e00002003a00c1
:100b90000e007800880407000a00e000030035001a
:100ba0008a0f5000010036000a0078000b0278001e
:100bb00089017800000178008e0078000800780034
:100bc000ea0107004f0778004f05be004f04be0042
:100bd000af00b10000000600f4874700889fbe0008
:100be0008a9fbe008c9fbe008e1f78000605be0047
:100bf0000404be0081bf9f0082b79f00f3b79f002f
:100c0000b0009000e1b79f001301780092b79f00f9
:100c100090069000400090000000e9000006780077
:100c20000d00e00001003d001d0020008040eb00b1
:100c3000efb19700817178001e0020001f0037007f
:100c40000c06e9000fb09700cf80de006109b90003
:100c5000a0b79f00b1b79f00c2b79f00d3b79f0056
:100c60000203be000002be000800be000a01be0072
:100c7000620d0700000778000e4078000043b000c6
:100c8000efb0970080707e008d06e9000fb99700e5
:100c90000201e90082bf9f002fb29700bfb2970008
:100ca0004fb39700dfb397000800be000a01be00f3
:100cb0004b0d07000205be000004be000c00e00062
:100cc0000d003400e00f5400e08f5c00e00f5d0089
:100cd000e08f5d00daff3a000d00e000d8ff3c0035
:100ce0008fb997000300e000030034001fb09700a5
:100cf0000018a300d2ff3a000e00e00002003a0004
:100d0000ffb097001140a1000c0078004f07780059
:100d10004f06be004f05be004f04be004f01b1009c
:100d2000000006000200fa00889fbe008a9fbe00f5
:100d30000005780001047800020078001801900096
:100d4000a804900098007800b1bf9f00b8059000fb
:100d50000200e000020035000110a100b1bf9f00b9
:100d6000ea815700a2002000890078003002be000e
:100d70002003be000800780097ff0700480190009c
:100d80000201e90000015100808045003fba970050
:100d9000890178000a007800740107009a00900029
:100da0000188a3000400320098009000810f5000d9
:100db00001003d00010078004f05be004f04be0059
:100dc0000080fa0000000600fa874700889fbe00f6
:100dd0008a9fbe008c9fbe008e1f78008004780022
:100de0000104780082057800180190002805900021
:100df00018077800b80090000200e00002003500fb
:100e00000e10a100010037001200200070006700e2
:100e1000e0b79f00090032003b02be002b03be007a
:100e2000e00f5200e08f5a00e00f5b00e08f5b00a4
:100e3000020032008a86e900010037008a06780045
:100e4000e8026700f5b79f00010032008d06e90057
:100e50003b02be002b03be00e4af9f00f5af9f0036
:100e600086b79f0097b79f00480690000c06e900e0
:100e70000040eb0080707e00efb297007fb29700d9
:100e80008903780081047800d8af9f0002047800bd
:100e90008bbf9f008a057800034578002a00370041
:100ea0000c06e9006fab97006f006300e90f50007c
:100eb00002003c000003b000010037007005b000e4
:100ec0000a03fb001604b100f90f53000c003e00aa
:100ed000000378000650a0001606b100f90f530079
:100ee00007003e00b4b79f00a5b79f00c7b79f009b
:100ef000d0030700cfb39700afb297003fb297007f
:100f000080747e000804e9008d06e9006fa8970050
:100f1000ffa897000fb197009fb1970046002000ef
:100f20008301d1000281d3008180d3000080d300ef
:100f30000603e900faff3a00e0af9f00f1af9f001f
:100f400082b79f0093b79f00e10f56000f00340057
:100f50006fa89700ffa897000fb197009fb1970067
:100f6000e00f5000e08f5800e00f5900e08f59006b
:100f7000cbff3a000800e000c9ff3c000d00e00094
:100f8000020034000e18a300c5ff3a008900780063
:100f9000f4b79f00870478005fac97008a4178001f
:100fa0000b0578008fbd97000500e00010003200af
:100fb0003b02be002b03be00e4af9f00f5af9f00d5
:100fc00086b79f0097b79f00e00f5200e08f5a004e
:100fd000e00f5b00e08f5b00050032000c06e900cb
:100fe00083707e000c06e90000c3b30080707e00b1
:100ff000ffb297000500e000030032000c06e90094
:1010000000c2b30080707e00480190000201e90038
:101010000c0151008c8040000e0278008a0178009b
:1010200009007800d1000700990090000188a30012
:101030000400320098009000810f500001003d0034
:10104000010078004f0778004f06be004f05be0034
:101050004f04be00af01b10000000600f287470058
:101060008e1f780002027800030178000000e00083
:101070000200320000077800010037007287570035
:101080008002eb000100e000010032008102e90073
:1010900070805700060009000018eb000080eb008c
:1010a00080bf9f002310200093bf9f00aebf9f0012
:1010b000b1bf9f00c5bf9f000100e00003003d00dd
:1010c000b1042000b15f880006003700004feb003c
:1010d000eebf9f00debf9f00840078007080570045
:1010e000690307004f0778002f01b10000000600d8
:1010f00084082000848f50001d0032000d003c0049
:1011000014082000848f50002700320002003c00a9
:10111000040820000400370024082000848f5000b9
:101120003400320044082000848f500043003a000d
:1011300036003700040a2000848f50002700320058
:1011400004003c0004092000848f50003b003a005a
:1011500028003700020c2000828f50002f00320040
:10116000020f2000828f500034003a002b0037001d
:101170009380e9000200e000050032008109780058
:101180001102fb00cfa2de00612bb900280037005e
:1011900081097800114278000482fb008002eb0094
:1011a0006033b8002200370013027800e4005200d8
:1011b0000200e00005003200810978001102be0043
:1011c0004fabde00860378001900370081097800f4
:1011d0001102be006033b800150037009380e900ab
:1011e0008109780011027800cfa2de00612bb900de
:1011f0000f00370093027800e880520081097800e0
:101200003102be002103be00090037009380e900cf
:101210000200e00002003200f1ff37009380e90095
:1012200081097800110278008002eb006033b80079
:101230000498be000690be001000050000000500e6
:1012400044082000848f50002500320008003c0034
:1012500014082000848f500014003200240820005d
:10126000848f500024003200040820000c00370056
:1012700004092000848f50001f00320004003c004d
:1012800084082000848f500024003a000e003700ac
:10129000040a2000848f500011003200040c20004a
:1012a000848f50001d003a000d0037009380e90044
:1012b000810978009100780001087800cf91de0064
:1012c0008288be00140037009380e900810978000d
:1012d0009100780001087800824878000e003700fd
:1012e0009380e90081097800910078000108780076
:1012f00082087800080037009380e90081097800af
:1013000091007800010878006112b900612bb900e2
:101310008498be008690be00100005000000050005
:10132000889fbe0000047800480090008204780086
:10133000808f540001003600800478000901780095
:101340005800900025fd070058009000090040005b
:1013500050049800c8009000898450004904980007
:101360000048eb004f04be0000000600f287470073
:10137000889fbe008a9fbe008c9fbe008e1f780093
:101380008004780001057800020478008305780065
:101390006107620002003a008b0f54000800390018
:1013a000080178008a00780009007800dcff070057
:1013b0008b0f540002003900880578001e003700aa
:1013c000088655000c017800f00f56000100360029
:1013d00002012000010220007e805700f201070078
:1013e0008c0678000500370002012000fe805700bf
:1013f00009007800caff0700f0865600ef8f5600fc
:10140000f9ff3e004461de0000ff2f000091b900ab
:1014100002014600fe80570009007800c0ff070067
:101420000e00e00004003a00080178008a0078000d
:1014300009007800baff07000b0078004f0778001a
:101440004f06be004f05be004f04be002f01b10085
:101450000000060000000500000005000000050077
:10146000000178000040eb008080fb00818040009c
:1014700043bb200063c278000404e00003003a008c
:1014800050bb200060c07800000006009201780088
:10149000934f520004003a0050bb200060c0780017
:1014a0000309e800010037000040e800ea4f50005f
:1014b000edff360000000600f6874700889fbe005b
:1014c0008a9fbe008c9fbe008e1f780000057800aa
:1014d0000104780083057800040678000000eb0022
:1014e000c0b79f008080eb00d1b79f00e0b79f009e
:1014f000f2b79f000008200080bf9f00980078008e
:10150000010078008004eb00010037008904e80046
:10151000304178000204e0000300320053c2b300ff
:10152000834f5100f9ff3a000900e0000400320047
:10153000090178000a00780079ff0700188c440040
:101540001807780050c2b3009e4f10003f013a00c8
:101550000e07e8000e0c780010003700cfb097009f
:101560000100a0000b003700cfb097000110a000d1
:1015700008003700cfb097000120a0000500370019
:10158000cfb097000130a00002003700cfb0970025
:101590000140a000c1b79f00000ce80018007800cf
:1015a00090407800b2c2b30082cf5000f1ff320009
:1015b00007003c0002c2b30082cf5000f0ff3200af
:1015c00032c2b30082cf500007003a00efff37006d
:1015d000d2c2b30082cf5000e0ff320002c3b3009a
:1015e00082cf5000e0ff3200a2c2b30082cf500091
:1015f0000d003a00000ce8001c80e900000e7800a5
:1016000010007800e0b79f000000e0000f003d00f0
:10161000cfb097000100a200c1b79f000000ea0010
:10162000e0b79f000900370039010700e0b79f00cd
:1016300001003700000ce800180078009000fb0063
:101640000103b100e98f5000faff36004fb0970058
:101650000008a300020032000010a100c0b79f00e4
:1016600018007800e1c2b30090cf100016003a00d5
:101670008000eb00d1b79f000000e800000c78006c
:10168000a1c2b30090cf100006003a00000ce800a1
:101690001c80e900000e780010007800d0b79f0091
:1016a000090037001a010700d0b79f00010037007a
:1016b000000ce800180078009000fb000103b10066
:1016c000e98f5000faff36000800780064ff070039
:1016d00080467800180078001000fb00ce0107005b
:1016e00091062000810f50003800320012003c00ab
:1016f00041062000810f5000340032000a003c00f7
:1017000011062000810f5000200032003106200019
:10171000810f5000a000320051022000810f5000c4
:10172000bc003a00b400370071062000810f500061
:10173000b8003c008800370001072000810f5000ee
:101740005c00320007003c00e1062000810f5000e1
:101750007a003200f1062000810f5000ad003a00ff
:101760003900370051072000810f50002700320058
:1017700081072000810f5000420032003107200015
:10178000810f5000a3003a008f0037008d80fb00ce
:101790000c01780000fe2f000f004000c801070078
:1017a0000000e000a800320018007800000ce800fb
:1017b0009041780002fe2f000f014100f880570091
:1017c0000a007800de0107000e0037008d80fb0064
:1017d0008c0178001200200000fe2f000f00400056
:1017e00043fe07000000e00097003200180ce800fc
:1017f00002fe2f000f014100f88057000a00780018
:101800003dfc070080844400900037008d80fb0081
:101810008c0178000001eb0000fe2f000f0040005b
:1018200033fe07000000e00087003200180ce800db
:1018300002fe2f000f014100f88057000a007800d7
:1018400038fd0700efff37008d80fb008c0178002a
:101850000001eb0000fe2f000f00400024fe0700f7
:101860000000e00078003200180ce80002fe2f00b3
:101870000f014100f88057000a00780077fc07004c
:10188000e0ff37008d80fb008c0178000001eb0049
:1018900000fe2f000f00400015fe07000000e000d2
:1018a0006900320018007800000ce80090417800d0
:1018b0001c0037008c0178000001eb00010f2000b4
:1018c00000fe2f000f00400009fe07000000e000ae
:1018d0005d003200180ce8000fb097009fb0970031
:1018e0002fb19700bfb19700e00f5000e08f580074
:1018f000e00f5900e08f590009003a00cfb597007a
:101900006fb49700c0ba20002b0107000b027800cb
:101910008801780000017800c1ba20004700370034
:1019200083c7b30002fe2f000f014100f88057006b
:101930000a00780024fd0700b2ff37000b81440045
:101940008d80fb008c01780000fe2f000f0040000e
:101950003bfe07003c0037008d80fb000c01780047
:1019600000fe2f000f004000550107000000e000be
:101970003500320018007800000ce8009041780033
:1019800002fe2f000f014100f88057000a00780086
:101990000e0407009bff370000c8b30080cf56003d
:1019a00029003a00180ce8001c80e900000e7800bd
:1019b00010407800e0df9f0013002000e2fd2f00c0
:1019c0000f0141000800370000c8b30080cf560067
:1019d0001d003a00180ce8001c80e900000e780099
:1019e0008001eb0010017800f88057000a007800b1
:1019f0004ffc070083ff370000c8b30080cf5600bc
:101a000011003a00180ce8004fb29700efb19700b0
:101a1000080037000e0c78000000eb00c0b79f00f4
:101a2000e0b79f000080eb00d0b79f000002eb0002
:101a3000840178001200200021bb20000a007800f9
:101a40004afe07006fff3700180ce8000900780015
:101a50004f0778004f06be004f05be004f04be0082
:101a60006f01b100000006008200fa00889fbe00ee
:101a70008a1f78000005780082047800c13f9f002b
:101a80000004eb001000370009027800880178009c
:101a9000a2f72f000f01410081f72f008f80400037
:101aa0000a00780084fe070008004000880f5000fc
:101ab00004003d00b0042000b05f88000084eb000b
:101ac00004003700000478004f3897001004e0004d
:101ad000edff3a00080078004f0578004f04be0083
:101ae0000080fa000000060080007800100020004e
:101af00002022000828f500004003200e980500072
:101b0000e48f5000010036000000eb0000000600ea
:101b1000889fbe008a1f7800000578000a047800bc
:101b2000984478000805e8000900fb00eeff070074
:101b30000000e000f9ff3a00b0c2b30080cf5400cb
:101b400005003200d0c2b3008000eb0080cf54000b
:101b500005003a00020037008000eb00010037006a
:101b6000110020000804e8000000eb00030037002b
:101b70006a02b900020052000003b0003801fb0005
:101b800003fd2f0082814100e98f5100f8ff3600ec
:101b90000100e00001003a000000ea004f05780073
:101ba0004f04be0000000600889fbe008a9fbe0052
:101bb000800478000200e0005b0032000140780001
:101bc000814c780082814400f1f99f00e20f5100be
:101bd0005500360091449800a1449800e1f99f0017
:101be000d1f99f00e60f51004f003600b144980034
:101bf000c1f99f00e80f51004b0036000905ea00cb
:101c0000630565000a8444000a055100c1ff2f00e6
:101c1000010565000080fb008000eb001210200031
:101c200013102000ae060700008cbe000a0144001d
:101c300060b99f0071b99f00e80f55003a00360067
:101c40002004980031049800400498005104980042
:101c500020b99f0031b99f0040b99f0051b99f0042
:101c6000f80f5500300036006004980071049800a9
:101c7000000c9800110c9800200c9800310c980072
:101c8000400c9800510c980020b19f0031b19f008a
:101c900040b19f0051b19f0060b19f0071b19f00a2
:101ca00000b99f0011b99f006401640078014100f0
:101cb00002044400020555006011b8000203be0092
:101cc0000002be000403be006022b80000007200e3
:101cd000818072000201730083817300100037005d
:101ce000009cbe000294be0040049800510498007d
:101cf0006204980073049800000c9800110c98007e
:101d0000220c9800330c9800400c9800510c98005d
:101d1000620c9800730c98000a02b1000802b0002f
:101d2000ff0f5500eeff3e00090078004f05be0092
:101d30004f04be0000000600010178008001780019
:101d4000008268000408a300050032001300370079
:101d500032407800805978000004e000140032001e
:101d6000030278000208a300f9ff3a00030078009c
:101d7000010037000318780082007800b201780073
:101d8000f5ef2f00838242000382ea0004826200a2
:101d90000508280005026200f6ff32000002780004
:101da00031417800025878000204e000fbff3a005d
:101db000040078000000060080007800040037006e
:101dc0003104e00002003a0000005100000006006b
:101dd000010178000108a300f9ff3a0081017800b1
:101de00031017800f4ef2f00020242000281ea0084
:101df000020162000408280004016100f7ff3200bc
:101e000083007800010178003104e000fdff3a0012
:101e10000000510000000600f1fb2f008080400010
:101e2000f98f500001003e000050a00000000600a5
:101e3000f9ff3700f1f92f0080804000f98f500042
:101e400001003e00f005b20000000600f9ff370077
:101e50000200fa00881f780000047800e2bf9f00ab
:101e60006481570008007800fffe0700980090008a
:101e70000148a300010032000080eb004f0478000d
:101e80000080fa00000006000200fa00881f7800b7
:101e900000047800e2bf9f006481570008007800ca
:101ea000f1fe0700980090000148a30001003200f5
:101eb0000080eb004f0478000080fa00000006006c
:101ec000881f78000004780000082000808f5000f0
:101ed0001700350010082000808f50000b003400e0
:101ee00030082000808f500011003a0092007800e6
:101ef00068805000000978003002be002003be0058
:101f0000049cbe000694be000700370092027800d1
:101f100064805200000978001000be0090050700a0
:101f2000009cbe000294be0010002000010037009b
:101f30000000eb004f0478000000060000000600df
:101f40003e00fa00889fbe008a9fbe008c9fbe00a4
:101f5000100798008346780011007800400f980021
:101f6000910190004307980021029000240f9800ef
:101f7000c1029000050f7800b1009000611f980029
:101f80003204be002205be00281f9800391f9800a9
:101f90004a1f98005b1f98006022b8006033b800a9
:101fa0000800be000a01be00630507000000e00053
:101fb00009003d000800be000a01be0003f0a200b7
:101fc000201f9800311f9800421f9800531f98004f
:101fd000d0c2b30004003700ce0890000128a3004f
:101fe00009003200b0c2b3006e19900000497800b9
:101ff000ae0990008301e900330f9800140020001f
:10200000540f980010003700ce0a90000538a30046
:102010000900320000c2b3006e1b9000004b780034
:10202000ae0b90008703e900370f980018002000de
:10203000580f980004003700ae0c9000390f98003c
:102040000005eb005a0f98002e189000be18900063
:102050004e199000de199000b8ff0700f4ff2f0022
:10206000f5ff2f00f6ff2f00f7ff270004026000a6
:102070008582600006036100878361006000b8000c
:102080000200200003ff27000020e10001a8e1007a
:1020900002b0e10003b8e1000c003a008d06fb003d
:1020a0001d04b100ee1d9000de0890000180450087
:1020b000a1bc2000f98f560001003600e1bc2000d1
:1020c000def90700e0bc20002f0237000020e1000d
:1020d00001a8e10002b0e10003b8e1000c00360005
:1020e0008d06fb001d04b1006e199000de09900002
:1020f0000300410021bd2000f98f56000100360089
:1021000061bd2000cdf9070060bd20001e02370030
:1021100000c3b3006e1a9000de0a900000f27a004d
:102120000500e800000142008d00fb00f6fb2f00d7
:10213000068340002607980081c7b300f90f5300bb
:1021400001003e0081c5b300014978000000e800ad
:10215000500f98006022b8006033b8002e1890002d
:10216000be1890004e199000de199000f20407008e
:102170000000e0005e0032008003eb006044b80025
:102180000a0020000bff23006807980079079800d9
:102190000a0f98001b0f980007067800050037000b
:1021a0000c06e8006e0c9000fe0c90000e159000de
:1021b0009e1590000802be000a03be000800be0083
:1021c0000a01be00520507000002be000203be0065
:1021d000640f9800750f980006179800171798005d
:1021e0002e189000be1890004e199000de19900035
:1021f000d10407000000e000e9ff3d006c0f9800eb
:102200002a0037006022b8000600200007fe2300e5
:102210000800be000a01be00370607006022b800b1
:102220006033b800c40407000000e00016003a0064
:102230006022b80006002000073524000800be0018
:102240000a01be002c0607000004be000205be0005
:102250006022b80006002000073524002e189000e8
:10226000be1890004e199000de199000220607005b
:102270000002be000203be00241f9800351f980014
:10228000461f9800571f98006022b80006002000e3
:1022900007fe23000800be000a01be001606070064
:1022a0000004be000205be000c06e9000802be00e4
:1022b0000a03be002e189000be1890004e19900020
:1022c000de1990009c0407000000e000cdff3500ff
:1022d0000800be000a01be00600798007107980060
:1022e000020f9800130f98006c0f98000900370038
:1022f0008000eb00610f98006022b800060020000b
:1023000007ff23006407980075079800060f9800e0
:10231000170f9800ce029000800120000500e00019
:10232000010035004e0090000000e80030079800e2
:102330006e049000fe0490000e0d90009e0d900023
:1023400068179800791798000a1f98001b1f9800bb
:102350002e1c9000be1c90004e1d9000de1d9000b3
:102360000006eb003a0037006e129000fe1290005b
:102370000e1b90009e1b90000800be000a01be00cc
:102380002e050700880807000002be000203be00f9
:10239000241798003517980046179800571798008b
:1023a0008e04070080027800550798006e12900096
:1023b000fe1290000e1b90009e1b90002e109000ad
:1023c000be1090004e119000de119000ca0507006b
:1023d0000002be000203be000800be000a01be00eb
:1023e000c50407000004be000205be006022b8005c
:1023f0000600200007fb23006e109000fe109000e6
:102400000e1990009e199000bb0507000002be0047
:102410000203be006417980075179800061f980005
:10242000171f98000c06e800ce0290000500e0009f
:1024300007003d006022b8006033b8000800be000d
:102440000a01be003c0407000000e0000400320066
:102450003e039000860f5600c3ff35000100370091
:102460003c0798006022b800060020000702240004
:102470006e109000fe1090000e1990009e199000b2
:102480009d0507000002be000203be00641798000d
:1024900075179800061f9800171f98000800be00c7
:1024a0000a01be00240407000000e0000d00350012
:1024b0006e129000fe1290000e1b90009e1b90006a
:1024c0000800be000a01be001b0407000000e00077
:1024d00011003a00de0290000508a3000800320057
:1024e0000d0037006044b8006055b80068179800c8
:1024f000791798000a1f98001b1f980006003700e4
:102500006000b8006011b80060179800711798005b
:10251000021f9800131f98006e129000fe12900088
:102520000e1b90009e1b90002e189000be1890006d
:102530004e199000de199000750407000002be00dd
:102540000203be006417980075179800061f9800d4
:10255000171f980079fe07000203be000002be00ac
:10256000f0ff2f00f1ff2f00f2ff2f00f3ff2700f5
:1025700000046200818462000205630083856300b9
:10258000281f9800391f98004a1f98005b1f980069
:102590006000b8000200200003ff27000040e100b7
:1025a00001c8e10002d0e10003d8e100bbfe320027
:1025b000be0c90008984e900291f98005e0e9000ef
:1025c0008006eb005d0798002d1798006f0037001c
:1025d0006e029000fe0290000e0b90009e0b900089
:1025e0006e109000fe1090000e1990009e19900041
:1025f00092040700ec0707000004be000205be00bd
:10260000f6030700800078000100e00006003a00b1
:102610002e1090000000e000030032008d06e8005c
:102620003d0f9800330037005e0190000200e0008b
:102630000c003a00ae1190000300e00009003200e7
:10264000e0c2b3006e1a900000727e000c06e80033
:10265000ae1a90008502e900251f980016002000a0
:1026600056079800ee1b90000c8143000d00780087
:10267000070278000300370003c3b3000359780052
:102680000000e9000000e000fbff3a00300f980076
:10269000641f98000d064600e98f500003003c00bf
:1026a00000032000010040000200370070052000f8
:1026b00001004000ae009000f98f500006003e007f
:1026c000800078000150a0001106b100f98f500081
:1026d00001003e00d7fd07006e19900000717e00da
:1026e0000c06e8008d86ea00ae1990008d8141004d
:1026f000231f98006e029000fe0290000e0b9000c7
:102700009e0b90000800be000a01be00fa040700fc
:102710000002be000203be006e109000fe1090008a
:102720000e1990009e199000f30307000002be00ee
:102730000203be006417980075179800061f9800e2
:10274000171f98006022b8000600200007fb230036
:102750006e009000fe0090000e0990009e0990000f
:10276000e50407000004be000205be0068079800eb
:10277000790798000a0f98001b0f9800ae1490007c
:102780008904e90029179800be0e90002e159000cc
:102790000a00ea00be0590008b0f500004003d00c7
:1027a0009e00780065805000800f560088ff390039
:1027b0005e0190000200e0001e003a000d00e00003
:1027c0007d003400ce0190000300e0007a00340068
:1027d0004e0a90000408a30077003a00ee1a900019
:1027e0008c804200e0c2b300804878000d00780081
:1027f0008501780002c3b300826878000000e90018
:10280000fcff3a00631f98000c8646000c06e800a7
:102810002e1b90000600e9000d005000201f9800bc
:1028200004003700e0c2b300ee1b900080737e000e
:102830000c06e8006e1c90000c0044000048eb0001
:102840009e0478008900e9000041eb0002f4780062
:102850008001eb006e0d90000a00e00003003d00d7
:102860000a05ea006a0f98001300200012002000f9
:102870006e0a9000810378002e1b90006e1c900061
:10288000800678000900370081037800a500200049
:10289000110009000502d8000002be000543b00087
:1028a00005f47b000201e9000603e9008700e90066
:1028b0000400e000f4ff3a00e10f5100f2ff3200a3
:1028c000261f9800681f98000d0078000102440040
:1028d000b2c2b3000300e00001003200d2c2b30074
:1028e000024a78000101e900ee199000828041005f
:1028f00003c7b3002e029000f90f520001003e0002
:1029000003c5b30083487800820f560001003d00e4
:10291000caf70700ce0a900063806200e20f500001
:1029200018003a002e1b90000684e9004240a900de
:10293000140034006e1890001ffd07008000440052
:102940008100e800ee1b9000818043008701780041
:1029500002003700e36078000000e900de0c900020
:10296000890f5000fbff3d00631f98000980410064
:1029700008017800010320008bfc07000005eb0034
:102980002a0f98006e1890000bfd07004e0a900069
:10299000ae09900000017800ee1890001e00900033
:1029a00072fa07004f06be004f05be004f04be007e
:1029b0000080fa0000000600ce0d90000b48a30036
:1029c00098ff3a009bff3700000006004200fa0023
:1029d000889fbe008a9fbe008c9fbe002007980083
:1029e000110f9800034f980011007800400f9800d5
:1029f00091009000610f98009e099000a301900043
:102a0000330f98001e0a90004402900014079800ab
:102a10009e0a9000b5029000052798003204be007f
:102a20002205be006022b8006033b8000800be0076
:102a30000a01be00c00207000000e00003003d00e4
:102a40000bf0a200d0c2b300040037004e0b900080
:102a50000628a30009003200b0c2b3008e23900004
:102a6000804b78003e0890000000e900700f98004d
:102a700011002000510f9800100037004e099000ff
:102a80000238a3000900320000c2b3008e2190007a
:102a9000804978003e0a90000402e900740f980013
:102aa00015002000550f9800040037003e0b9000e1
:102ab000760f98008003eb00570f98000800be00c7
:102ac0000a01be00c0ff0700f4ff2f00f5ff2f0032
:102ad000f6ff2f00f7ff27000402600085826000e8
:102ae00006036100878361006000b80002002000d7
:102af00003ff27000020e10001a8e10002b0e1008f
:102b000003b8e10011003a000e4890008000fb007d
:102b10001104b1000e219000de0990000300410075
:102b2000f98f500002003e00a1bd200001003700d7
:102b3000e1bd200041f70700e0bd20009efc07003a
:102b40005e0a900004014000150037000020e100fb
:102b500001a8e10002b0e10003b8e1001300360073
:102b60008e4a90008500fb001104b1000e239000f6
:102b7000de0b900007004300f98f500002003e007a
:102b800021be20000100370061be20002bf70700a6
:102b900060be200088fc0700de08900001014000b4
:102ba0004e0a9000be099000500237006022b80023
:102bb0006033b8000800be000a01be005e020700d4
:102bc0000000e0006a0032006022b8000600200029
:102bd00007ff2300441798005517980066179800c0
:102be000771798008006eb000800be000a01be00bf
:102bf000001f9800111f9800221f9800331f980093
:102c00000e269000070037008d06e8000802be007f
:102c10000a03be00441798005517980066179800dd
:102c2000771798006022b8000600200047022400b1
:102c30004e109000de1090006e119000fe1190007a
:102c4000ad0307000004be000205be000002be0086
:102c50000203be000e1890009e1890002e199000de
:102c6000be199000340207000000e000e6ff3d00be
:102c70000c2798000006eb004e149000de14900024
:102c80006e159000fe1590002500370040ed2f00d6
:102c9000808f560019003d000c00e00016003a003d
:102ca0006022b80006002000073524000e189000ae
:102cb0009e1890002e199000be1990008e030700f8
:102cc0000002be000203be00041f9800151f9800fa
:102cd000261f9800371f98006022b80006002000c9
:102ce000073524000800be000a01be008203070069
:102cf0000004be000205be001c0020006022b800d7
:102d000006002000470224000800be000a01be00a1
:102d1000ca0207000004be000205be008d06e900dd
:102d20000802be000a03be000e1890009e18900014
:102d30002e199000be199000ff0107000000e0006e
:102d4000d2ff35000800be000a01be0040179800ff
:102d50005117980062179800731798000e1c900086
:102d60009e1c90002e1d9000be1d90000800370094
:102d70006022b8000600200007ff230044179800d7
:102d80005517980066179800771798008006eb0093
:102d90008e4a90000500fb001ffc0700104f9800b2
:102da0006e0b9000600020000600e000010035007e
:102db0006e08900071c6b3009e4b900081cf530007
:102dc0000a003a00ee0890000100e000cf01320056
:102dd000cf0137008d0f5000d3013c00001f980039
:102de00052c6b300425f98001e0037009e49900013
:102df000435f98000200370064c6b300445f980048
:102e00000000e800001f980060c6b300ce5a900092
:102e100080cf520013003a000d00e00008003d0092
:102e20006000b8000200200003ff23004017980054
:102e30005117980062179800731798008006eb00ee
:102e400061c6b300415f980070c6b3001e49900090
:102e5000804f5100030032008e1990008d81410097
:102e6000031f98004e129000de1290006e13900027
:102e7000fe139000441f9800551f9800661f98008d
:102e8000771f98000800be000a01be0000179800d6
:102e90001117980022179800331798000006eb00ce
:102ea0000802be000a03be00540798006507980098
:102eb00076079800070f9800310037004e1a9000ef
:102ec000de1a90006e1b9000fe1b90000e1090000a
:102ed0009e1090002e119000be1190005702070026
:102ee000b10507000004be000205be00bb010700db
:102ef00080027800250f98004e1a9000de1a90008c
:102f00006e1b9000fe1b90000800be000a01be0070
:102f1000f90207000e1290009e1290002e139000ee
:102f2000be139000f40107000002be000203be00c1
:102f300007f0a200041798001517980026179800ac
:102f4000371798006022b8000600200047022400ce
:102f50004e189000de1890006e199000fe19900037
:102f6000360207000002be000203be00441f9800a4
:102f7000551f9800661f9800771f98000c06e80000
:102f80008e1a9000850f5600ccff35005e0490002d
:102f9000ee0490007e0590008e0d90006022b80037
:102fa00006002000470124004e189000de18900013
:102fb0006e199000fe199000cf0207000002be00bb
:102fc0000203be00441f9800551f9800661f98001a
:102fd000771f98000e1090009e1090002e11900008
:102fe000be119000540107000000e0000f00350002
:102ff0004e1a9000de1a90006e1b9000fe1b90008f
:103000000e1090009e1090002e119000be119000a6
:10301000490107000000e00011003a00ae0a9000ec
:103020000508a300080032000d0037006000b8005a
:103030006011b800401f9800511f9800621f98004f
:10304000731f9800060037006022b8006033b80094
:10305000441f9800551f9800661f9800771f98001e
:103060004e1a9000de1a90006e1b9000fe1b90001e
:103070000800be000a01be00a50107000002be0054
:103080000203be0004179800151798002617980031
:10309000371798006022b80006002000470224007d
:1030a0004e109000de1090006e119000fe11900006
:1030b000910207000004be000205be000002be002f
:1030c0000203be000e1090009e1090002e11900082
:1030d000be1190001d0107000000e000090035004e
:1030e0008d06e80060c6b300ce5a900080cf520033
:1030f00008003a000e1b90000603e800061f980027
:10310000110037004e149000de1490006e159000f0
:10311000fe15900050c6b3004e599000804f5100ec
:1031200009003a000802be000a03be00441f9800ce
:10313000551f9800661f9800771f98008002eb00cb
:1031400045179800070037000800be000a01be00be
:10315000401f9800511f9800621f9800731f98002d
:103160004d1798005e0e90000001eb00220f9800b2
:1031700032079800520798000d0f78006a00370058
:103180004e1a9000de1a90006e1b9000fe1b9000fd
:103190000e1090009e1090002e119000be11900015
:1031a000a6010700000507000004be000205be00de
:1031b0000a010700e90f50000100340090002000d0
:1031c000ce0990000348a3000c003a000000e00084
:1031d0000a003a0071c6b3001e4a9000814f5200a7
:1031e00006003a00ce1290000500e00003003d000a
:1031f0002e0b90008606e80023003700be039000e7
:103200000700e0000c003a00ce1090000100e00042
:1032100009003d00e1c2b3000e21900001717e0063
:103220000c06e800fe0990008301e900730f980086
:1032300014002000340798008e2290000c81420078
:10324000ae0e9000850178000300370001c3b30083
:10325000015978008d06e9000d00e000fbff3a00ff
:10326000032798002e0b9000060646000043b0008e
:1032700080717e000c06e8000680ea00fe0b9000dc
:1032800080834300770f98004e1a9000de1a90005a
:103290006e1b9000fe1b90000800be000a01be00dd
:1032a000150207000e1290009e1290002e1390003f
:1032b000be139000100107000002be000203be0012
:1032c00007f0a20004179800151798002617980019
:1032d000371798006022b80006002000470224003b
:1032e0004e189000de1890006e199000fe199000a4
:1032f000520107000002be000203be00441f9800f6
:10330000551f9800661f9800771f9800ce129000f6
:103310008502e900451798005e0390000603e80067
:10332000560798002d0f9800de0390000e189000ad
:10333000808f530005003d009e08900041009000e2
:1033400065005000800f56008dff39009e06780002
:103350003e0190000200e00007003a00ce09900014
:103360000348a30004003200e0c2b3000e22900024
:1033700000727e000c06e8008e2290000c80420055
:103380000048eb0051c6b3004e5b9000814f5300e4
:1033900038003a009e0390008700e9000041eb00ee
:1033a00082f278008001eb000d00e00002003d0099
:1033b0008d06ea001300200022002000010378009f
:1033c000fe0a90008e239000000478000a00370067
:1033d00001037800a4002000110009008406d80031
:1033e00001027800800678000443b00084737b00fb
:1033f0000201e9008502e9008600e9000d00e00015
:10340000f3ff3a000200e000f1ff3c00750f980066
:10341000072798000800780001824300b2c2b30079
:103420000300e00001003200d2c2b300024a78007b
:103430000101e9008e219000828041008e4a9000b7
:103440000502fb001404b10053c6b300f90f52008b
:1034500001003e0053c4b300834878007e0b900007
:103460000683e900760f9800820f560001003d00a8
:10347000f2f40700ce0b900063806300e20f50006f
:1034800015003a007e0890000000e00012003400b1
:103490000e20900048fa07008e21900004003700ab
:1034a0007e09900082804100e37078000000e9000e
:1034b000de0a9000850f5000f9ff3d0003279800b9
:1034c000058041007e09900001032000b6f9070045
:1034d0000003eb00360f98000e20900036fa07002c
:1034e0004e0a9000be099000000178008e209000e6
:1034f0002e0090009df707004f06be004f05be004e
:103500004f04be000080fa000000060010002000fa
:10351000e48f46002ffe3d00001f980057c6b30001
:10352000475f98004ffe37000d00e00032fe350087
:10353000001f980042fe37008f1fd1009103070043
:103540008f87e9000000e00000000600809feb008c
:103550008c0307008f87e9000000e00000000600f0
:1035600081037800490007000001be006000b80038
:103570000478a30013003a006220e10015003e0029
:103580000d0039008301d1000281d3008180d30076
:103590008301d1000281d3008180d3008301d10057
:1035a0000281d3008180d3000538b000c42add0039
:1035b000f300b2008381720007f0a70003f0a000bf
:1035c0000000060083ff2700020020006110b90000
:1035d000f9ff370003ff2700f7ff37001400fa0058
:1035e000889fbe008a9fbe008c9fbe000004be0064
:1035f0000205be00680047000a90be000890be00a9
:103600009b0307000070a7000bf0a10030432000cf
:103610009e02900080825200b0fe2f000028e10040
:1036200011003d00b0fc2f000028e100150034001f
:103630001e0990008e0890007e0090000501b000e9
:103640000201d1008180d3000080d3008502e80010
:10365000fbff3a000b00e000c0033b0060001000dd
:10366000e0801800bd033700f0ff2f00f1ff2700b6
:103670000b00e000b9033b0001002800000020001f
:10368000b60337006000b800b4033700c70ade0095
:10369000f107b200f50fb20008003200e1cf42009e
:1036a000020032000170a00024000500810f7000ac
:1036b000010032000408050044000500810f70007d
:1036c00002003a00140005008502e90000004000f5
:1036d00081c04800fcff3b000170a00024000500f1
:1036e000020ab900001bb9000200b80081004200c4
:1036f00081004300000006008c9fbe008a9fbe0030
:10370000889fbe00ca0107000bf0a200040037002a
:103710008c9fbe008a9fbe00889fbe00c401070028
:103720000c48e1000b003a000c40e10002003200be
:103730008b010700400037008b066d003e00320011
:103740000af0a100f3012000f2ff2f006110b90080
:10375000390037000c40e100370032000940e10039
:10376000010036007e0107008a856d00cf5dde0016
:103770000b0575000006eb008804fd008904540069
:10378000010032007d0107000a04e00011003a0048
:103790000800e00028003200040040008580480056
:1037a00006014900878149000358a3001800320030
:1037b0008301d1000281d3008180d3000080d30037
:1037c0000c86d30001003900610676000804e80089
:1037d0001800370004005000858058000601590089
:1037e00087815900060031000af0a2000c06ea00a9
:1037f00060001800e080180060011900e0811900e5
:1038000003003a000004eb000005eb000a0037005b
:103810000348a30007003a000c06460000004800d9
:103820008180480002014900838149000804e900c1
:10383000f7ff3700af013700c90137008c9fbe008a
:103840008a9fbe00889fbe00790107000b056d00ae
:103850000940e1000a003a000800e00002003200de
:103860000c40e10006003a000af0a1000c047800c8
:10387000f3012000f2ff2f006110b9009d00370016
:103880000c40e1009b0032000800e000990032008b
:103890000c48e10002003a000004eb00030037008e
:1038a0000900e00004003a000c0478006000b80051
:1038b0006011b8008f0037000348a30006003a00eb
:1038c00000004000818048000201490083814900d6
:1038d0000804e900f8ff37000748a30006003a0093
:1038e0000402420085824a0006034b0087834b0096
:1038f0008904e900f8ff3700fd3f20008d84540063
:10390000090454008a1f7800881f7800000478009a
:103910008104780002057800830578006000b80013
:103920006011b8000d0420000500370008044400b1
:1039300089844c000a054d008b854d00080031003c
:103940000404540085845c0006055d0087855d00e5
:103950008381d2008d06d300f4ff3b0007003700bf
:103960000404440085844c0006054d0087854d0005
:103970008381d2008d06d300ecff3b000804440095
:1039800089844c000a054d008b854d0008003100ec
:103990000404540085845c0006055d0087855d0095
:1039a0000281d2008d06d300f4ff3b0007003700f0
:1039b0000404440085844c0006054d0087854d00b5
:1039c0000281d2008d06d300ecff3b0008044400c6
:1039d00089844c000a054d008b854d00080031009c
:1039e0000404540085845c0006055d0087855d0045
:1039f0008180d2008d06d300f4ff3b000700370022
:103a00000404440085844c0006054d0087854d0064
:103a10008180d2008d06d300ecff3b0008044400f7
:103a200089844c000a054d008b854d00080031004b
:103a30000404540085845c0006055d0087855d00f4
:103a40000080d2008d06d300f4ff3b000700370052
:103a50000404440085844c0006054d0087854d0014
:103a60000080d2008d06d300ecff3b000b00e0008d
:103a700004003d000404440085844c0006054d000c
:103a800087854d000006eb008301d1000281d30041
:103a90008180d3000080d3000c86d3008301d10045
:103aa0000281d3008180d3000080d3000c86d30034
:103ab000890474008b0575008b847400010032004a
:103ac000610676004f0478004f0578000348a30094
:103ad00007003a000c0646000000480081804800bc
:103ae00002014900838149000804e900f7ff37001b
:103af000000137001a0137008c9fbe008a9fbe006c
:103b0000889fbe00ca0007000b056d008a0578007b
:103b10000c40e10008003a000900e00082003a0091
:103b20000af0a1000c047800f3012000f2ff2f003e
:103b30006110b9007c0037000c48e10004003a0035
:103b4000870007000900e00077003a00f4ff370023
:103b50000800e000740032000900e00002003a00b2
:103b60007f00070070003700ed3f20008d84540077
:103b7000090444008a1f7800881f7800871f780096
:103b8000861f7800851f7800841f7800cb19dd0020
:103b9000c515de008b8571004b11dd00450dde0083
:103ba0000a057100cb08dd00c504de0089847000c1
:103bb0004b04dd000440b8000546b8008c8040008e
:103bc00060814e00044eb8008c8040000d01490019
:103bd0008001eb000318ad000456b8000c01410051
:103be0008d8149000002eb000420ad000646b800bc
:103bf0000c0141008d81490060024a00054eb80069
:103c00000c0141008d81490060024a000556b80050
:103c10008c8141000d024a008002eb000528ad00b6
:103c20000746b8008c8141000d024a00e0824a003c
:103c3000064eb8008c8141000d024a00e0824a0025
:103c40004f0678000c5eb8008c8141000d024a00de
:103c5000e0824a000656b8000c0242008d824a00fb
:103c60000003eb000630ad00074eb8000c02420026
:103c70008d824a0060034b004f0678000c5eb8004e
:103c80000c0242008d824a0060034b000756b800c8
:103c90008c8242000d034b008003eb000738ad001f
:103ca0004f0678000c5eb8008c8242000d034b007a
:103cb000e0834b004f0678000c5eb8000c03430015
:103cc0008d834b004f0478004f0578000748a30010
:103cd0000a003a00000040008180480002014900cb
:103ce0008381490004024a0085824a0006034b0092
:103cf00087834b000804e900f4ff370003067800cf
:103d000080807000828070000100320061067600c1
:103d100087017800060178008500780004007800ab
:103d200088047800780037008d0037008c06460044
:103d300002003a000000a6000000060060004800f3
:103d4000e080480060014900e08149000350a6007e
:103d5000000006008301d1000804e800000006000e
:103d60000002fd008102fd000203fd008303fd004f
:103d70008804fd008a05fd00000006007048e1008f
:103d80001a0039007d0320000d48e1000a003900c7
:103d900081057000830671008c8575008d85750026
:103da0000006eb000cd8e700610676006000b80062
:103db0006011b800000006007048e1000b003900f7
:103dc0008c057800000678000100780082007800f9
:103dd000030178008001eb0003d8e700610676005c
:103de000f0845400f4ff3a00000006006160e10036
:103df0000c48ad00f08514008b06dd000966de007e
:103e00000d0676008b0edd000900de000d0070004f
:103e10008b16dd008908de008d8070008b1edd00b2
:103e20000911de000d0171008919de000000060095
:103e30000d002800fc7f20000d856100441cde0081
:103e4000ef8161000c046400010032000340a00017
:103e50008d856300c43cde00ef8363008c846400c6
:103e6000010032000740a0000c40e10006003a00cb
:103e7000ef866100828676008186760080867600f5
:103e800001003200180037000c48e10007003a003a
:103e9000ef866300868676008586760084867600c7
:103ea00002003200aeff07000f0037000348a300f6
:103eb00005003a00810670008286760083867600cf
:103ec000010032000804e8000748a30005003a009a
:103ed00085067200868676008786760001003200ad
:103ee0008904e80000000600cf047800cf057800c0
:103ef0001b0037000002780081027800020378007e
:103f000083037800880478000cf0a70087ff07007f
:103f1000fd7f20000d40e100040035000d04780015
:103f20006000b8006011b8000d0037000800e00024
:103f30000b003c0004007800850078000601780042
:103f400087017800e18414008cff07000cf0a700c3
:103f500076ff07000004eb000340a7000804e80018
:103f60004444dd006fc56100880175004f04be0048
:103f70004f05be004f06be0000000600889fbe0031
:103f80008a9fbe0030044200b0844a0030054b00d6
:103f900090854b006000b1000898be000a90be00fa
:103fa0000440e10005c8e10006d0e10007d8e100c7
:103fb00002003100680040001008e8004f05be0014
:103fc0004f04be0000000600889fbe008a9fbe000e
:103fd0003004be002005be000418540005985c00a3
:103fe00006185d0007985d00110020000440e10004
:103ff00005c8e10006d0e10007d8e1000100390062
:104000008000eb00108810004f05be004f04be007a
:10401000000006001200fa00889fbe008a9fbe00c2
:104020008c9fbe00e0b79f00f1b79f0082bf9f004a
:1040300093bf9f000605be000404be000000eb0015
:10404000d0b79f00c0b79f00b0b79f00a0b79f0038
:1040500090b79f00000678005fb19700cfb097003f
:10406000820141003fb097000200e00004003d00e3
:10407000370007007e805700c0ff070003003700ad
:10408000330007007e805700cfff0700dfb69700a0
:104090000d00e0000c0035006fb29700ffb29700f2
:1040a0000fbb97009fbb970010002000010020006d
:1040b0006011b80000027200818272000203730076
:1040c000838373001b0007000c06e8000104200036
:1040d000810f5600e0ff3a000d00e00004003d00b3
:1040e0000802be000a03be007e805700a3ff07003f
:1040f0005fa897000000e00005003a001fb297009b
:10410000afb297003fb39700cfb397000900070005
:104110006fb09700ffb097000fb997009fb9970055
:104120004f06be004f05be004f04be000080fa00df
:10413000000006000100070000000600a4b79f0071
:10414000b5b79f00c6b79f00d7b79f000000060015
:104150004f09de0082817100b3b79f004f01de007e
:104160008180400082807000a1b79f008fb09700cf
:104170004f09de00000040000200700090b79f0071
:104180007fa897004f01de00818040008280700090
:1041900081b79f000d0007004f3ade00000040008d
:1041a00004007000f0af9f00080007000402420006
:1041b00085824a0006034b0087834b00dfff070020
:1041c0000802be000a03be00000006002fb29700de
:1041d000bfb297004fb39700dfb39700000006000f
:1041e000881f780018002000881f780089ff0700ca
:1041f0008f87e9004f04780000000600801feb0065
:1042000084ff07008f87e90000000600889fbe003a
:104210008a9fbe00e00f5000e08f5800e00f590069
:10422000e08f59000c003d006044b8006055b800b4
:104230000000540081805c0002015d0083815d000c
:10424000180020001500070008003d0018000700b6
:104250000004eb00050037000004eb000f0007002e
:1042600002003d001200070018002000dcff0700dc
:104270000800e000060032006022b8006033b80099
:104280000000520081805a0002015b0083815b00c4
:104290004f05be004f04be0000000600e00f5200b4
:1042a000e08f5a00e00f5b00e08f5b00000006002b
:1042b0006044b8006055b8000402540085825c0078
:1042c00006035d0087835d0000000600889fbe0036
:1042d0008a9fbe008c1f7800e00f5000e08f5800ce
:1042e000e00f5900e08f59000d003d006044b80018
:1042f0006055b8000000540081805c0002015d0040
:1043000083815d001c0020000820e10009a8e10075
:104310000ab0e1000bb8e1000d003d0008003700d5
:104320000006eb00e00f5200e08f5a00e00f5b0048
:10433000e08f5b0006003d006044b8006055b800a7
:104340000402540085825c0006035d0087835d00e3
:10435000aaff07000c00e000060032006022b8004f
:104360006033b8000000520081805a0002015b00f7
:1043700083815b004f0678004f05be004f04be00ee
:1043800000000600889fbe008a9fbe008c9fbe0072
:104390000404be000605be00809fbe00829fbe00d2
:1043a00021000700040678000800be000a01be00d4
:1043b0001d000700840678004f03be004f02be00b8
:1043c0008d4f76007fb0970013003300f0ff2f0071
:1043d0008b8f6b0006003b000d0666000c00a700eb
:1043e0000a00370007f0a600100020000a0037007e
:1043f000880f5200898f5a008a0f5b008b8f5b00f9
:10440000030039001000200001003e0000002000e1
:1044100007f0a7000000ea004f06be004f05be00ef
:104420004f04be000000060005ff27000582610062
:10443000070032000428e1000100320024000500da
:104440000600070001003a004400050004080500ca
:1044500002000700f9ff3a00140005006f826100b6
:104460008102700085027100850272000000060062
:10447000800078005002be005003be004439de00c8
:10448000f700b200f37f2000030161000900320051
:104490000218e10016003a008501720083017300e2
:1044a000838173000008200015003a0040002000be
:1044b000130037008501720083017300838173004c
:1044c00005003a0004a8be0006a8be0010002000a7
:1044d0000b0037000201e9000402420085824a0015
:1044e00006034b0087834b000748a300f9ff320007
:1044f0000740a00004a8be0006a8be0020002000bf
:1045000080009800920098000000060068044700b0
:104510000294be000094be00fc0447008694be00d6
:104520008494be0009007800d1ff070008007800dd
:10453000cfff070099007800814f70000b003b000f
:104540000800be000a0007004f00b100030037005a
:10455000f3ff2700f2ff2f006110b9004f06be00e5
:104560004f05be004f04be000080fa0000000600a8
:10457000e48240001078a30007003200640240008b
:104580001178a3003400be001401be000400320004
:104590000330a700000006003500be001501be0074
:1045a0000330a000000006001800fa00889fbe003b
:1045b0008a9fbe008c1f78000004be000205be006a
:1045c0000802be000a03be00443ade00f07f20006d
:1045d0000006620020432000800f560067003c0068
:1045e0006022b8006033b8000800be00d2fb0700ac
:1045f0000000e000610032000802be000a03be00b5
:10460000b4b79f00c5b79f00d6b79f00e7b79f001c
:10461000e00f5200e08f5a00e00f5b00e08f5b007c
:104620000b003d006022b800060020000733240084
:104630000800be000a01be002ffc07006022b8007f
:10464000060020000733240031fc07000a00370071
:104650006022b80006002000073324000800be00d6
:104660000a01be002afc07006022b80006002000f4
:104670000733240020fc07000802be000a03be0026
:104680001dfc07000002be000203be00f4b79f003d
:1046900085bf9f0096bf9f00a7bf9f00e03f2000ff
:1046a000800f560017003c007fb097008fb897002e
:1046b0001fb99700afb99700f0af9f0081b79f0077
:1046c00092b79f00a3b79f006044b8006055b80040
:1046d0003fb29700cfb297005fb39700efb3970058
:1046e000e00f5200e08f5a00e00f5b00e08f5b00ac
:1046f00022003d006044b8000a0020000bff2b00a0
:104700001e0037006022b8006033b8007fb0970009
:104710008fb897001fb99700afb997008bfb0700c0
:104720000000e0000c0034007fb297008fba9700c1
:104730001fbb9700afbb97000800be000a01be0078
:10474000f3fb07006022b8000600200007ff2300eb
:10475000e9fb0700070037007fb297008fba970088
:104760001fbb9700afbb97000800be000a01be0048
:10477000e7fb07000004be000205be000800be0003
:104780000a01be004f0678004f05be004f04be0070
:084790000080fa0000000600a1
:020000040000fa
:104798005f5f000005080000000000000000000046
:1047a8000000000000fa00000000000000e0000027
:1047b80000e0000000280000fe280000fe2800009d
:1047c80024540000fe54000048c40000c810000033
:1047d800264600006c9200006a0400000a000000ef
:1047e80010e00000c0000000003800004482000013
:1047f8000000000082440000380000005438000027
:10480800fe38000054100000107c0000101000005a
:10481800000000000e0c0000001000001010000046
:104828001010000000000000060600000004000050
:1048380008100000204000007c8a000092a20000be
:104848007c00000042fe0000020000004e920000c2
:10485800929200006284000082920000b2cc0000b4
:104868001828000048fe000008e40000a2a200008a
:10487800a29c00003c520000929200008c82000032
:104888008488000090e000006c9200009292000082
:104898006c62000092920000947800000000000012
:1048a8002800000000000000022c000000000000aa
:1048b800001000002844000082280000282800007a
:1048c8002828000000820000442800001040000052
:1048d800809a0000906000007c820000ba9a000074
:1048e800723e000048880000483e0000fe9200002a
:1048f800929200006c7c00008282000082440000da
:10490800fe820000828200007cfe0000929200007d
:1049180092820000fe90000090900000807c0000d1
:10492800828200008ace0000fe10000010100000f5
:10493800fe00000082fe0000820000000402000069
:1049480082fc000080fe0000102800004482000065
:10495800fe0200000202000002fe000040380000d3
:1049680040fe0000fe20000010080000fe7c000051
:1049780082820000827c0000fe900000909000007f
:10498800607c0000828a0000847a0000fe900000ab
:10499800989400006264000092920000924c00001b
:1049a800c0800000fe800000c0fc00000202000081
:1049b80002fc0000f804000002040000f8fc0000fb
:1049c800021c000002fc0000c6280000102800009d
:1049d800c6c00000201e000020c00000869a00000b
:1049e80092b20000c2000000fe8200008282000035
:1049f800402000001008000004000000828200002f
:104a080082fe0000204000008040000020020000dc
:104a1800020200000202000000c00000e0100000d6
:104a2800000400002a2a00001c020000fe140000f6
:104a3800222200001c1c0000222200002214000078
:104a48001c22000022140000fe1c00002a2a00007c
:104a58002a180000001000007e900000403000007e
:104a68004a4a0000523c0000fe10000020200000ce
:104a78001e00000022be0000020000000402000028
:104a880002bc000000fe0000081400002200000024
:104a980000820000fe020000003e0000201e000010
:104aa800201e00003e100000202000001e1c0000f8
:104ab80022220000221c00003e18000024240000ce
:104ac8001818000024240000183e00003e100000c2
:104ad80020200000101200002a2a00002a240000ca
:104ae80020200000fc220000243c000002020000fc
:104af800043e00003804000002040000383c0000b6
:104b0800020c0000023c00002214000008140000ff
:104b1800223200000a0a00000a3c00002226000097
:104b28002a32000022000000106c00008200000001
:104b380000000000fe00000000000000826c000081
:104b480010000000040e00000e0400000000000029
:104b58000c0c00002530000032640000000000004a
:104b68000078000000f8000000fc000000fc0000d5
:104b780000fc00001e7c00003e7800007f0400005e
:104b88009f3f00003e1f00003e0c00003e0000005a
:104b980004000000f0000000f0010000e000000048
:104ba8001e0000003f0000003f0000007f000000e2
:104bb8003f0000003e3800001e7c0000107e000010
:104bc8007c7e0000787e0000307c0000003c000005
:104bd80000200000001e0000001f0000000e000062
:104be80050650000646f00006d650000746500008a
:104bf8007220000047720000617000006800000029
:104c080031320000482f00003234000048200000f4
:104c1800496e00007465000072760000616c000047
:104c2800005300006574000020540000696d000006
:104c38006500000053650000742000004461000016
:104c480074650000004500007869000074000000e9
:104c580000000000ffff0000ffff0000ff00000051
:104c6800ffff0000ffff0000ff0000005365000089
:104c780074200000546900006d65000000250000e4
:104c8800303200006400000053650000742000000a
:104c980044610000746500000031000032480000e3
:104ca8002f32000034480000204900006e740000d4
:104cb80065720000766100006c0000002564000049
:104cc8000053000031000000533200000053000080
:104cd800312b00005332000000000000ffff0000ed
:104ce800ffff0000ff000000414d000000500000e1
:104cf8004d0000002530000032640000003a00003a
:104d08002530000032640000002000002000000070
:104d18002f250000303200006400000053310000ed
:104d28000053000032000000533100002b530000f4
:104d3800320000002530000032640000000000004e
:104d4800ffff0000ffff0000ff0000001f1c000025
:104d58001f1e00001f1e00001f1f00001e1f000056
:104d68001e1f0000200100000000000000000000dd
:104d7800200100000f000000000000002564000072
:044d88000000000027
:020000040000fa
:104d8c000600fa00000f780011079800220798001f
:104d9c001e007800804078002e00900001487800ba
:104dac002e00900011c0b300614898002e009000b6
:104dbc009e0090001101be00220098003300980064
:104dcc001e007800e30f50002f003200e30f50005c
:104ddc0005003e00e10f500015003200e10f5000bd
:104dec001e003e0007003700e60f50003e00320068
:104dfc00e70f500048003200e50f50002e00320043
:104e0c00570037002e0090009e0090001102be004b
:104e1c002400980035009800a102900045009800ed
:104e2c002e00900001e52200110098005000370080
:104e3c002e0090009e0090001103be0026009800ea
:104e4c0037009800a1039000470098002e009000b6
:104e5c00a1e6220011009800450037002e009000ba
:104e6c009e0090001101be002200980033009800b3
:104e7c00a1019000430098002e00900081e82200d0
:104e8c00110098003a0037002e0090009e00900010
:104e9c003102be002103be002400980035009800aa
:104eac0046009800570098002e00900061ea2200fe
:104ebc00110098002e0037002e0090009e009000ec
:104ecc003102be002103be0024009800350098007a
:104edc0046009800570098002e00900081ec2200ac
:104eec0011009800220037002e0090009e009000c8
:104efc003102be002103be0024009800350098004a
:104f0c0046009800570098002e009000a1ee220059
:104f1c001100980016003700ae0090001e009000a3
:104f2c00e4804000b0187800a0107800e4804000c5
:104f3c0064004000b0187800a0107800e4804000b5
:104f4c0064004000900878008180e8000080e80050
:104f5c002e009000c1f022001100980004003700d0
:104f6c002e009000a1e32200110098000000000028
:104f7c000080fa00000006000400fa0020479800a8
:104f8c00314798002e4090008080fb003e409000fe
:104f9c000000fb00008f4000c03c2a00104078004d
:104fac000080fb009e0f500003003d00c03c2a0017
:104fbc0010407800080037001e0078000000e00068
:104fcc0002003d000040eb0003003700be409000a3
:104fdc002e40900000c040000080fa000000060047
:104fec000200fa00004f780011479800c03c2a00dc
:104ffc00104078009e40780080cf500005003e00a5
:10500c00d03c2a00104078009e40900080cf500089
:10501c00020036000000eb0007003700f1c5b300ba
:10502c001e407800420a0700f1c5b3001e409000f4
:10503c002a0a0700820a07000080fa000000060016
:10504c000400fa00004f78001147980012079800ee
:10505c00c03c2a00104078009e40780080cf500061
:10506c000e003e00d03c2a00104078009e4090007c
:10507c0080cf50000b003e00f1c5b3001e407800fd
:10508c002b0a0700f1c5b3001e409000130a07005d
:10509c001e009000930a0700030037000000000078
:1050ac0001003700000000000080fa00000006003c
:1050bc000e00fa00004f9800114f9800224f9800f4
:1050cc00630798000e4890008080fb002e489000eb
:1050dc000080fb0080805000c03c2a00104078000b
:1050ec000080fb00808f500070003c001e48900038
:1050fc008080fb002e4890000080fb0080805000d8
:10510c00d03c2a00104078000080fb00808f5000bb
:10511c0068003c002e4890000004e00001003a00ba
:10512c0010c0b300204f98002e48900080407800ab
:10513c000e48900090ff0700204798002e489000e2
:10514c000040ea00804078000e4890008aff07007b
:10515c00304798002e489000804078001e48900000
:10516c0085ff0700404798002e4890000040ea0059
:10517c00804078001e4890007fff07005047980041
:10518c00be409000014f7800430037000e4890005d
:10519c009e4f5000030039000e4890001e405000f6
:1051ac00030037009e4078000e48900000c050006d
:1051bc0060479800de40900011479800310037009e
:1051cc009e4890001e40900080cf50000400390093
:1051dc009e4890001e40900000c050000300370015
:1051ec009e4090001e48900000c0500070479800f0
:1051fc007e4090008080fb006e4090000080fb00a1
:10520c00808040002e4890000080fb00808f500072
:10521c00150034007e4090008080fb007e409000a2
:10522c000080fb000088b900000178006e409000ff
:10523c008080fb006e4090000080fb000088b9006d
:10524c0000007800000141002e4890008080fb0097
:10525c002e4890000080fb000088b9000000780008
:10526c00800f510004003c006e0190009e409000a5
:10527c001e40780072ff07001e4090000040e800be
:10528c00104798009e4090004e40900080cf5000f8
:10529c00cbff39001e4fe8002e4090009e40780056
:1052ac0080cf5000b9ff3900030037000000000028
:1052bc0001003700000000000080fa00000006002a
:1052cc000c00fa006047980071479800024f980054
:1052dc00530798000040eb00104798000040eb008b
:1052ec00204798000040eb00304798000000eb008e
:1052fc00200798000e4890000004e00001003a00de
:10530c0010c0b300004f98000e4890000040e80019
:10531c00004f78000040eb00104798000040eb0075
:10532c00204798000000eb0020079800670037002a
:10533c001e4090000000fb00000040000000e80050
:10534c00ae00900000804000200798001e409000a6
:10535c000040e800104798002e0090000000e0008c
:10536c005a0035004c003700ae4090003147980091
:10537c0043003700ae4090007e40900080c040005b
:10538c003e4190006e409000004041005e01900054
:10539c002bff07002e409000fe40900080c0500074
:1053ac003e4190006e409000004041005e01900034
:1053bc0023ff0700ae4090007e40900080c040006c
:1053cc003e4090006e419000004051005e01900004
:1053dc001bff07002e409000fe40900080c0500044
:1053ec003e4090006e419000004051005e019000e4
:1053fc0013ff0700be4090007e40900080c040002c
:10540c002e4190006e409000004041005e019000e3
:10541c000bff07003e409000fe40900080c0500003
:10542c002e4190006e409000004041005e019000c3
:10543c0003ff0700be4090007e40900080c04000fb
:10544c002e4090006e419000004051005e01900093
:10545c00fbfe07003e409000fe40900080c05000d4
:10546c002e4090006e419000004051005e01900073
:10547c00f3fe07003e4090000040e80030479800e3
:10548c003e4090009e4f5000baff35002e409000d9
:10549c000040e80020479800ae4090001e4090006d
:1054ac0080cf5000b0ff35009e00fb00e0ff2f00c6
:1054bc000088b900000078000000e800ae00900001
:1054cc0000804000200798001e4fe9001e4090000d
:1054dc009e40780080cf500095ff3d000080fa0080
:1054ec00000006000a00fa00404798005147980057
:1054fc006247980073479800440798007e409000dc
:10550c000080fb000000d10000407800ee409000cd
:10551c0000c040006047980064003700ee409000e7
:10552c00014f78000040eb00104798000000eb00a2
:10553c0010079800560037009e4090005e40900087
:10554c0080c040001e4178004e4090000040410059
:10555c004e019000bafe07001e409000de40900005
:10556c0080c050001e4178004e4090000040410029
:10557c004e019000b2fe07009e4090005e409000ed
:10558c0080c040001e4078004e4190000040510009
:10559c004e019000aafe07001e409000de409000d5
:1055ac0080c050001e4078004e41900000405100d9
:1055bc004e019000a2fe07009e4078005e409000d5
:1055cc0080c040001e4190004e40900000404100c1
:1055dc004e0190009afe07001e407800de409000bd
:1055ec0080c050001e4190004e4090000040410091
:1055fc004e01900092fe07009e4078005e409000a5
:10560c0080c040001e4090004e4190000040510070
:10561c004e0190008afe07001e407800de4090008c
:10562c0080c050001e4090004e4190000040510040
:10563c004e01900082fe07001e4090000000fb000f
